:0300000002092FC3
:0C092F00787FE4F6D8FD7581460208F8D8
:1008F80012093B1209223001051208C7C201AF458F
:0509080012080080F15F
:03000B00020942A5
:0309420005223259
:030003000208866A
:09088600C0E0C0D075D000C00034
:10088F00300029E522C39426500AE522C3941D4067
:10089F000375210074232521F8A622752200052156
:1008AF00E521B4210CD2017521008005752200D2FB
:0108BF000038
:0708C000D000D0D0D0E032DF
:0D092200758902E4F58CF58AD2A9D28C22E9
:07093B00D288D2A8D2AF223E
:1008C7007E01E4FD7C0174232EF8E6D394054005F0
:1008D7004307808000ECC394085004EFC313FF0E56
:1008E7000CBC09E274432DF8A607E4FF0DBD04D440
:0108F70022DE
:10090D007DF4D3EF9400EE94004009DDFEEF1F70EF
:04091D00F11E80EE59
:0109210022B3
:10080000D2A5D2A4EF14B40800507A90081975F05C
:1008100003A4C58325F0C5837302083A02086E025B
:10082000085602083102087D02084D0208850208B8
:1008300077C282C281D283C28022C282C281D28325
:10084000C2807F027E0012090DD280801AC282C24D
:1008500081C283D28022C282C281D280C2837F02BF
:100860007E0012090DD2837F027E0002090DC28232
:10087000C281D283D28022D282D2818004C282C23B
:0608800081C283C2802248
:00000001FF
